:10000000BDC00000D7C00000D5C00000D3C00000B4
:1000100052C40000CFC00000CDC0000091C4000059
:10002000CAC00000C7C00000C5C00000C3C00000B7
:10003000C1C00000BFC00000BDC00000BBC00000C8
:10004000B9C00000B7C00000B5C00000B3C00000D8
:10005000B1C00000AFC00000ADC00000ABC00000E8
:10006000A9C00000A7C00000A5C00000DDC30000BB
:1000700070C3000059C300009DC0000000030609C2
:100080000C0F1215181C1F2225282B2E3033363941
:100090003C3F414447494C4E515355585A5C5E6071
:1000A000626466686A6C6D6F707273757677787962
:1000B0007A7B7C7C7D7E7E7F7F7F7F7F7F7F7F7F63
:1000C0007F7F7E7E7D7C7C7B7A7978777675737294
:1000D000706F6D6C6A68666462605E5C5A585553F6
:1000E000514E4C494744413F3C393633302E2B2842
:1000F00025221F1C1815120F0C09060300FDFAF724
:10010000F4F1EEEBE8E4E1DEDBD8D5D2D0CDCAC71E
:10011000C4C1BFBCB9B7B4B2AFADABA8A6A4A2A0CE
:100120009E9C9A9896949391908E8D8B8A898887BD
:10013000868584848382828181818181818181819C
:100140008181828283848485868788898A8B8D8E4B
:100150009091939496989A9C9EA0A2A4A6A8ABADC9
:10016000AFB2B4B7B9BCBFC1C4C7CACDD0D2D5D85D
:10017000DBDEE1E4E8EBEEF1F4F7FAFD11241FBE5B
:10018000CFEFCDBFDFE3DEBF18E3A0E0B8E3EEEBD7
:10019000F3E102C005900D92AE32B107D9F72DE31D
:1001A000AEE2B8E301C01D92AD3DB207E1F7FBD36B
:1001B0000C94DD0925CF0F921F922F920F931F935E
:1001C0002F933F934F935F936F937F93CF93DF93DF
:1001D000EF93FF932FB611E010930B0AFDE3E5EACE
:1001E0001127662744275527008123813581230F56
:1001F000238324813681231F248302FD17C003FD3E
:1002000029C000FD22C004FD05C005FD09C001FD97
:100210002BC02EC0C5EADCE3C20FD61F288124C044
:10022000C5EADBE3C20FD61F28811EC02CB340F401
:100230003DB3220F331F13F402E0202B2CBB3DBB38
:100240007FEF21FF7727272F0FC00181021780F052
:100250002FEF0AC02A95203808F402C019F0219522
:10026000220F02C02FE7220F0281209F410D561F4F
:100270001395183011F03796B7CF00912D38049FA1
:100280009001059F210D301D21EE40912E38429F97
:10029000112D2095329F110D10932E381093A10629
:1002A000FF91EF91DF91CF917F916F915F914F918E
:1002B0003F912F911F910F912FBE2F901F900F9064
:1002C000189582E080932504089590917D3B80915C
:1002D0007C3B891730F080917C3B90917D3B891B62
:1002E000089580917E3B90917D3B20917C3B820FD5
:1002F000891B08950F931F93CF93DF93FC01808197
:10030000C5EADBE380FD02C0C5EADCE38E0113959C
:10031000DCDF8823E9F390917C3B80917D3B20E0FA
:100320009817C9F080917A3B90917B3BE0917D3B9F
:10033000E80FF92FF11D2081F89480917D3B8F5FAC
:1003400080937D3B90917D3B80917E3B981302C0D2
:1003500010927D3B7894CE010196288380179107F7
:1003600029F4DF91CF911F910F910895EC01D0CF27
:10037000DC0111968C91119769E1C3D6983109F48B
:1003800049C012968C91129725E1929FF001112499
:10039000E359F64C808313968C91139781831496BE
:1003A0008D919C9115978383948316968C911697C3
:1003B000828317968D919C911897868397831996BF
:1003C0008D919C911A97808791871B968D919C9116
:1003D0001C97828793871D968D919C911E97848789
:1003E00095871F968D919C915097868797875196F8
:1003F0008C915197808B52968C915297818B53960A
:100400008C915397828B54968C915497838B5596ED
:100410008C91848B0895FC01218180818770E0910B
:100420006B39F0916C3999E1899FE00DF11D112430
:10043000218B0895FC0180818770E0916B39F091E8
:100440006C3999E1899FE00DF11D11248089828B1F
:100450001686178684E085870895CF92DF92EF9203
:10046000FF920F931F93CF93DF93EC016A818981F1
:10047000762F682F90E080E0AFD628E037E34EEB90
:100480005FE310D77DD66B0188818770E0916B396F
:10049000F0916C3999E1899FE00DF11D1124C7811C
:1004A000C082D18285E1C89FE0011124C359D64C96
:1004B0004C892B898A893989688960873187828745
:1004C000238770E080E091E0841B9109869FA00162
:1004D000879F500D969F500D1124548700E01FEF09
:1004E000C8011BD6638B748B632F70E0C80115D6CF
:1004F000658B768B622F70E0C8010FD6678B708F8B
:1005000012821382C482D5821686178689818683D9
:1005100081E08587DF91CF911F910F91FF90EF9040
:10052000DF90CF900895CF92DF92EF92FF920F93DA
:100530001F93CF93DF93FC0180818770C0916B394B
:10054000D0916C3999E1899FC00DD11D11240F8183
:1005500010E062818181762F682F90E080E03CD6A8
:1005600028E037E34EEB5FE39DD60AD66B01688344
:10057000798385E1809FF001819FF00D1124E3597B
:10058000F64C448923898289318960896887398753
:100590008A872B8770E080E091E0841B9109869F19
:1005A000A001879F500D969F500D11245C8700E09D
:1005B0001FEFC801B2D56B8B7C8B632F70E0C80135
:1005C000ACD56D8B7E8B622F70E0C801A6D56F8B8A
:1005D000788F1A821B82CC82DD821E861F868181E3
:1005E0008E8381E08D87DF91CF911F910F91FF90D6
:1005F000EF90DF90CF900895FC018181813071F000
:1006000050F0823061F0833051F08091A100816020
:100610008093A10008951092A000F7CF84E080930A
:10062000A000F3CFFC018181882321F080E2809338
:100630000604089580E2809305040895E0916A39E4
:10064000E03158F421E02E0F20936A39F0E0EE0FEC
:10065000FF1FE65BF64C8083918308950F931F93F1
:10066000CF93DF93FC01678385E1689FE00111244C
:10067000C359D64C4C892B898A8939896889608706
:1006800031878287238770E080E091E0841B9109A5
:10069000869FA001879F500D969F500D112454876F
:1006A00000E01FEFC80139D5638B748B632F70E0B6
:1006B000C80133D5658B768B622F70E0C8012DD5CC
:1006C000678B708F128213828081918184839583DE
:1006D00016861786158689818683DF91CF911F91B3
:1006E0000F910895FC01818139E1632F0AD5692FAB
:1006F0002081277080916B3990916C39239F800DF8
:10070000911D1124ABCF8091493991E0811190E086
:1007100090934939882321F084E08093060408955A
:1007200084E08093050408951F920F920FB60F92F4
:1007300011248F93EF93FF93E0E0F8E084818064CD
:100740008483FF91EF918F910F900FBE0F901F90B8
:1007500018951F920F920FB60F9211242F938F931B
:100760009F93EF93FF939091A33B8091A23B8917B6
:10077000B8F08091A23B9091A33B891BD1F41092D9
:100780009F3B809105088F7D80930508FF91EF9135
:100790009F918F912F910F900FBE0F901F901895E2
:1007A0008091A43B9091A33B2091A23B820F891B97
:1007B00031F381E080939F3B9091A33B8091A23BDA
:1007C000891750F18091A23B9091A33B891B41F086
:1007D000E091A33BF0E0E158F44C80818093020863
:1007E0009091A23B8091A33B981781F28091A03B0E
:1007F0009091A13B8091A33BF8948091A33B8F5FA4
:100800008093A33B9091A33B8091A43B981302C09B
:100810001092A33B7894BACF8091A43B9091A33BD4
:100820002091A23B820FD2CF1F920F920FB60F9250
:1008300011242F933F938F939F93EF93FF933091C6
:10084000000880917C3B20917D3B90E00196281729
:100850001906F1F080917C3B20917E3B90E001965F
:100860002817190601F180917A3B90917B3BE0912A
:100870007C3BE80FF92FF11D308380917C3B8F5F2B
:1008800080937C3B90917C3B80917E3B981781F0DC
:10089000FF91EF919F918F913F912F910F900FBEFC
:1008A0000F901F90189580917D3B8111DCCFF0CF88
:1008B00010927C3BEDCF1F920F920FB60F92112436
:1008C000F89482E0809326042FED33E994E02150E0
:1008D00030409040E1F700C00000809325042FEDE8
:1008E00033E994E0215030409040E1F700C000002F
:1008F000809326042FED33E994E02150304090405E
:10090000E1F700C00000809325042FED33E994E067
:10091000215030409040E1F700C000008093260451
:100920002FED33E984E0215030408040E1F700C0F2
:100930000000789488ED91E084BF90934100FFCF50
:100940001F920F920FB60F9211242F938F939F93A4
:10095000AF93BF93EF93FF93E0E4F1E021E0238BAB
:10096000108611868091453990914639A09147397A
:10097000B09148390196A11DB11D809345399093DE
:100980004639A0934739B093483920934439FF91B1
:10099000EF91BF91AF919F918F912F910F900FBECB
:1009A0000F901F9018951092A10688ED84BF1092A9
:1009B000600084BF1092610087E0809312018BE198
:1009C00080931301809110018E7F8093100184E643
:1009D0008093010482E08093210490E290930104CB
:1009E00090E490930504809330041092470181E0D5
:1009F000809340018093520181E480935001EDE6A1
:100A0000F9E390E081E02FEF40E051E03FE79031E3
:100A1000C9F06BE3E536F607A9F0808B818B248B58
:100A2000228B838B468357831086118631831286EF
:100A300013861486158616861786138214821282F0
:100A4000858380839F5F7596993109F7CCE7D8E35A
:100A500068E1CE0103DE699689E3C434D807C1F7A3
:100A6000F8948DE58CBB8DE08DBB80E6809301040E
:100A700080E48093050481E48093A00680E2809363
:100A8000010490E080E027E0289FF001299FF00D0D
:100A90001124EB55F24C1082128201968830910598
:100AA00099F790E080E03FEFFC01EB55F34C803884
:100AB00091050CF0DCC1282F220F2083FC01EB559F
:100AC000F44C1082803891051CF420812158208339
:100AD00020E4280F27FD03C02081215820830196A0
:100AE0008115E1E09E0701F71092A0008091A1001E
:100AF00081608093A100C0E2C093060487E08093E8
:100B0000000A81E080930A0A1092010A8091090A82
:100B10008E7F8093090A88E390E08093260A909361
:100B2000270A78948CE798E380936B3990936C391B
:100B300088E298E383DD83E298E380DD8EE198E349
:100B40007DDD89E198E37ADD84E198E377DD8FE06C
:100B500098E374DD8AE098E371DD85E098E36EDD6B
:100B600080E098E36BDD81E398E380937A3B909398
:100B70007B3BC0937E3B10927C3B10927D3B8FE78A
:100B80009BE38093A03B9093A13BC093A43B109226
:100B9000A23B1092A33BF89486EB92E08093080866
:100BA0009093090883E08093070888E080932204EB
:100BB00084E080932104809133048860809333041F
:100BC00080EC8093060880EE809305087894C093AB
:100BD00005041092A0008091A10081608093A10083
:100BE0008091A23B2091A33B90E001962817190623
:100BF00029F18091A23B2091A43B90E00196281717
:100C0000190621F48091A33B8823C1F08091A03B79
:100C10009091A13BE091A23BE80FF92FF11D8AEAE8
:100C200080838091A23B8F5F8093A23B9091A23BF7
:100C30008091A43B981302C01092A23BC1E0C093E4
:100C40009F3B8091050880628093050887EE92E0C3
:100C500080937C3890937D3880E480938D3860E079
:100C60008CE798E3FBDC80918938882309F401C183
:100C700082E08093893855E1752E69E1562E222451
:100C80002A94322C22DB8111FBC0809144398823C5
:100C9000C9F310924439CCE7D8E310E000E06624B1
:100CA0006A9444244394CF80D12C88809980B12CBD
:100CB000A12C7C9C90017D9C300D11242359364C35
:100CC000F90184859585509EF001519EF00D112407
:100CD000E458F74CE280F380892BA9F0F901648590
:100CE0007585C7011AD2009771F0A285B3859C0162
:100CF00037D2672F782F892F992787FD9A95860EEF
:100D0000971EA81EB91E7C9CF0017D9CF00D11243D
:100D1000E359F64C80859185E816F90658F0A681CE
:100D2000B781A501940122D2872E982EA92EBB242B
:100D3000A7FCBA947C9CC0017D9C900D1124835922
:100D4000964CFC012281222389F022812E9DD00124
:100D50002F9DB00D1124AB2FBB272581213009F425
:100D60004FC108F427C1223009F438C17C9CF0013E
:100D70007D9CF00D1124E359F64C86859785892BCF
:100D800009F44DC14181A685B7859701E9D1BB27FB
:100D900097FDBA95A92F982F872F242F30E0820F27
:100DA000931F181619060CF434C14E82B7FE3AC1CF
:100DB0001C821D822FEFE21AF20AEA82FB822D8545
:100DC0008E859F85223009F475C108F037C1213026
:100DD00009F456C18E859F8501968E879F87509E08
:100DE000F001519EF00D1124E458F74C908981894F
:100DF000989FC0011124D801AC58B74C9C93A7818F
:100E00007A9ED0011124A359B64C8C9197E0909F03
:100E1000D001919FB00D1124AB55B24C8C938681BB
:100E200011968C9311978481958115968D939C933F
:100E300016970F5F1F4F69960830110509F033CFE1
:100E40008FEF80932D3890E080E037E0FC01EC5884
:100E5000F74C2081389FF001399FF00D1124EB559C
:100E6000F24C228301968830910581F70BCF3083B5
:100E700025CE10928A3810928B38C0938938FBCED9
:100E800090917C3B80917D3B981709F48FC08091B5
:100E90007A3B90917B3BE0917D3BE80FF92FF11D70
:100EA0009081F89480917D3B8F5F80937D3B209172
:100EB0007D3B80917E3B281302C010927D3B78944D
:100EC000E091733881E08E0F80937338F0E0ED5A33
:100ED000F74C90838130F9F41092513810925238C7
:100EE00030916A39AAE4B9E380E0831759F0ED91B3
:100EF000FD9142812381292342135AC0E093513846
:100F0000F0935238C0915138D0915238209751F413
:100F1000D8D910927338C0915138D0915238209757
:100F200009F4B0CE9C81809173389813ABCEEBDB83
:100F3000E881F98183E598E309958091A23B2091AE
:100F4000A33B90E001962817190629F18091A23B56
:100F50002091A43B90E001962817190621F4809176
:100F6000A33B8823C1F08091A03B9091A13BE091ED
:100F7000A23BE80FF92FF11D8BE480838091A23B07
:100F80008F5F8093A23B9091A23B8091A43B9813EA
:100F900002C01092A23B81E080939F3B80910508A4
:100FA000806280930508109273386CCE90E088CFF1
:100FB0008F5F9BCFA458BF4FFD012491FC01A381FB
:100FC000B48130E0BED0672F782F892F992787FD15
:100FD0009A95860E971EA81EB91EC8CE80E48A0F69
:100FE0008038A9F087FF02C080EC8A1BA0ECA80F14
:100FF000AA0F7C9CF0017D9CF00D1124E359F64C66
:10100000238134810A2E000CBB0BAAD0DCCF8FE7E2
:10101000EDCF8F3F910521F01CF06E82C7CE81810C
:101020008E83C4CE81149104F1E0AF06B1041CF0AC
:101030002C823D82BFCE8C829D82BCCE233009F4AF
:101040005DC0243009F0C6CE6A894F89588D849FCF
:101050009001859F300D949F300D1124232F33274D
:10106000629FA001639F500D1124651B688B2B8527
:101070002817190611F008F0ADCE188A1D86AACEE1
:101080004B895C89849F9001859F300D949F300D22
:101090001124388B28852817190631F028F02C8563
:1010A0002817190609F096CE688A1E861F8662E008
:1010B0006D8790CEEA854D895E89849F9001859FDA
:1010C000300D949F300D1124232F33276FEF70E0E4
:1010D0006E1B7109269FA001279F500D369F500D52
:1010E0001124252F2095288B29852817190611F002
:1010F00008F070CEE88B83E08D876CCE8A85888B74
:1011000069CE991B79E004C0991F961708F0961BC9
:10111000881F7A95C9F780950895AA1BBB1B51E1DA
:1011200007C0AA1FBB1FA617B70710F0A61BB70B57
:10113000881F991F5A95A9F780959095BC01CD01FC
:101140000895A29FB001B39FC001A39F700D811DA0
:101150001124911DB29F700D811D1124911D0895C0
:10116000F0DFB7FF0895821B930B0895EADFA59F78
:10117000900DB49F900DA49F800D911D1124089592
:1011800070D088F09F5790F0B92F9927B751A0F0F1
:10119000D1F0660F771F881F991F1AF0BA95C9F70B
:1011A00012C0B13081F077D0B1E0089574C0672FDC
:1011B000782F8827B85F39F0B93FCCF386957795BB
:1011C0006795B395D9F73EF49095809570956195A4
:1011D0007F4F8F4F9F4F0895E89409C097FB3EF4CF
:1011E00090958095709561957F4F8F4F9F4F992374
:1011F000A9F0F92F96E9BB279395F69587957795F2
:101200006795B795F111F8CFFAF4BB0F11F460FFB1
:101210001BC06F5F7F4F8F4F9F4F16C0882311F009
:1012200096E911C0772321F09EE8872F762F05C01D
:10123000662371F096E8862F70E060E02AF09A95B8
:10124000660F771F881FDAF7880F9695879597F9AD
:10125000089557FD9058440F551F59F05F3F71F0A6
:101260004795880F97FB991F61F09F3F79F087950D
:101270000895121613061406551FF2CF4695F1DF96
:1012800008C0161617061806991FF1CF8695710526
:10129000610508940895E894BB2766277727CB015A
:1012A00097F908950BD078C069D028F06ED018F067
:1012B000952309F05AC05FC01124EECFCADFA0F316
:1012C000959FD1F3950F50E0551F629FF001729FDB
:1012D000BB27F00DB11D639FAA27F00DB11DAA1FFA
:1012E000649F6627B00DA11D661F829F2227B00D47
:1012F000A11D621F739FB00DA11D621F839FA00DD2
:10130000611D221F749F3327A00D611D231F849F21
:10131000600D211D822F762F6A2F11249F57504078
:101320008AF0E1F088234AF0EE0FFF1FBB1F661F13
:10133000771F881F91505040A9F79E3F510570F0CC
:1013400014C0AACF5F3FECF3983EDCF38695779507
:101350006795B795F795E7959F5FC1F7FE2B880FC7
:10136000911D9695879597F9089597F99F6780E85D
:1013700070E060E008959FEF80EC089500240A94E7
:101380001616170618060906089500240A94121660
:101390001306140605060895092E0394000C11F493
:1013A000882352F0BB0F40F4BF2B11F460FF04C040
:0E13B0006F5F7F4F8F4F9F4F0895F894FFCFD0
:1013BE007A0170FE01B80160FF16720350F0020B45
:1013CE000240F0022D0230F0031A0220F0019302C7
:0E13DE0010F0031203F1FF02FC02F0FF02FF09
:00000001FF
